:100000000C9489300C94BA300C94BA300C94BA30F9
:100010000C94BA300C94BA300C94BA300C94BA30B8
:100020000C94BA300C94BA300C94BA300C94BA30A8
:100030000C94BA300C94BA300C94BA300C94BA3098
:100040000C94BA300C941F730C94BA300C94BA30E0
:100050000C94BA300C94BA300D94F5420D94996E0C
:100060000C94BA300C94B9470C94BA300C94BA3052
:100070000C94BA300C94BA300C94BA300C94BA3058
:100080000C94BA300C94BA300C94BA300C94BA3048
:100090000C94BA300C94BA300C94BA300C94BA3038
:1000A0000C94BA300C94BA300C94BA300C94BA3028
:1000B0000C94BA300C94BA300C94BA300C94BA3018
:1000C0000C94BA300C94BA300C94BA300C94BA3008
:1000D0000C94BA300C94BA300C94BA300C94BA30F8
:1000E0000C94BA30A56944687A68E1697A687A68DC
:1000F0007A687A687A687A687A687A687A687A68F0
:100100007A687A687A687A687A687A687A687A68DF
:100110007A687A687A687A687A687A687A687A68CF
:10012000DB697A687A687A687A687A687A687A685D
:100130007A68B4697A687A687A687A687A687A6874
:100140007A687A687A687A68F8697768F8BD34BE40
:1001500025BFE3C035C240C250C28E0156015401D2
:100160009E01B801C001D801B60198016C0150018F
:10017000B00176019001CA014601C4015E01A201ED
:10018000920194016E019001C6017C01C8016401D5
:100190008A015C017801B20162017001B40142017F
:1001A00052017401CC01A601A4016201BE01DA0171
:1001B0004E01084AD73B3BCE016E84BCBFFDC12F28
:1001C0003D6C74319ABD56833DDA3D00C77F11BE48
:1001D000D9E4BB4C3E916BAAAABE000000803F054B
:1001E000A84CCDB2D44EB93836A9020C50B991867C
:1001F00088083CA6AAAA2ABE000000803F076342E6
:1002000036B79BD8A71A39685618AEBAAB558C1DAD
:100210003CB7CC5763BD6DEDFD753EF6177231BF2F
:10022000000000803F08000000BE922449123EAB4F
:10023000AAAA2ABECDCCCC4C3E00000080BEABAA00
:10024000AAAA3E00000000BF000000803F0000009E
:100250000000084178D3BB4387D1133D190E3CC33E
:10026000BD4282AD2B3E68EC8276BED98FE1A93EBD
:100270004C80EFFFBE01C4FF7F3F00000000000084
:100280000D9487270D94ED6D0D94E2630D94246B0E
:100290000D9423780D94D51D0D941F1F0D94426E5F
:1002A0000D940B6B0D94F76D0D9495470D9490473D
:1002B0000D9440180D94EE710D94BF6D0D942E6B3E
:1002C0000D941D2A0D944C6E0D94B56D0D94AB5E7E
:1002D0000D94925C0D945E5C0D941C6B0D94406BC0
:1002E0000D94DD6D0D94DF5C0D94016E0D94156B16
:1002F0000D94C96D0D940A200D944A6B0D94CD1C7C
:100300000D943B600D94EB2B0D94337E0D9455268C
:100310000D94F4710D94BA6D0D94C2630D94D24690
:100320000D94536B0D94386B0D943C6B0D94181D0C
:100330000D94196B0D94DC5C0D94E25C0D94C04738
:100340000D94ED710D94326B0D94246E0D941A6E14
:100350000D94F1710D94D85C0D94561A0D940329E7
:100360000D940F6B0D94D36D0D94E56D0D94C246F5
:100370000D94CC470D94F75C0D94B55C0D942E6EE6
:100380000D94A8470D94E46E0D942A6B0D94466B62
:100390000D944E6B0D94206B0D940B6E0D941419EF
:1003A0000D94C3630D94E45C0D94A01B0D94E36E57
:1003B0000D94AD470D94386E4E414E494E495459F7
:1003C000494E46CDCCCC3D0AD7233C17B7D1387720
:1003D000CC2B329595E6241FB14F0A000020410036
:1003E00000C84200401C4620BCBE4CCA1B0E5AAE80
:1003F000C59D7400407A10F35A00A0724E1809008F
:1004000010A5D4E80000E87648170000E40B540279
:100410000000CA9A3B000000E1F5050000809698B4
:1004200000000040420F000000A086010000001004
:100430002700000000E80300000000640000000046
:10044000000A00000000000100000000002C76D827
:1004500088DC674F0823DFC1DFAE59E1B1B796E50D
:10046000E3E453C63AE651997696E8E6C28426EB71
:10047000898C9B62ED407C6FFCEFBC9C9F40F2BA84
:10048000A56FA5F490055A2AF75C936B6CF9676D1C
:10049000C11BFCE0E40D47FEF520E6B500D0ED9071
:1004A0002E0300943577050080841E080000204E3E
:1004B0000A000000C80C333333330F986E128311D7
:1004C00041EF8D2114893BE65516CFFEE6DB18D1AE
:1004D000844B381BF77C1D901DA4BBE42420328480
:1004E000725E228100C9F124ECA1E53D27434F4D06
:1004F0004D554E49434154494F4E0044525952556F
:100500004E004552524F525300494E464F0045430C
:10051000484F0047322F4733206261642070617278
:10052000616D65746572730A00536C6565702E2E7B
:100530002E00205A3A200020593A200042656420BB
:10054000583A20004D65736820706F696E7420639F
:10055000616E6E6F74206265207265736F6C766574
:10056000640A00436C69636B20746F207265737555
:100570006D652E2E2E004E6F206D6F76652E004518
:100580006E642066696C65206C6973740A0042654C
:1005900067696E2066696C65206C6973740A00284F
:1005A0006E6F2066696C6529005344207072696E15
:1005B00074696E67206279746520004E6F742053F1
:1005C00044207072696E74696E670A0043757272B6
:1005D000656E742066696C653A200046696C65201A
:1005E00064656C657465643A0044656C6574696F34
:1005F0006E206661696C65642C2046696C653A20E2
:10060000002569730025696D2025697300256968D7
:100610002025696D20256973002569642025696896
:100620002025696D20256973002569792025696475
:10063000202569682025696D20256973005072693D
:100640006E742074696D653A20006F6E2E0A006F1B
:1006500066662E0A004732362044656275672000C0
:100660000E0509050205FB04ED046F6666004445AE
:100670004255473A004B494C4C45442E20004D31E1
:1006800031332053006F6B0050533A310A005053FE
:100690003A300A00426967426F7820312E312E3895
:1006A0002044204F66662E002C20002C2000544849
:1006B00045524D414C5F50524F54454354494F4E63
:1006C000004155544F5245504F52545F53445F536D
:1006D000544154555300454D455247454E43595F8B
:1006E00050415253455200434153455F4C4947489E
:1006F000545F4252494748544E45535300544F4764
:10070000474C455F4C494748545300534F46545754
:100710004152455F504F574552004255494C445F46
:1007200050455243454E54004C4556454C494E4762
:100730005F44415441005A5F50524F424500415579
:10074000544F4C4556454C005052494E545F4A4F09
:10075000420050524F4752455353004155544F5257
:1007600045504F52545F54454D5000564F4C554DD7
:10077000455452494300454550524F4D0053455250
:1007800049414C5F584F4E5F584F464600464952CC
:100790004D574152455F4E414D453A4D61726C692E
:1007A0006E20312E312E392042424475616C312E3B
:1007B000312E392047697448756220426967426F5B
:1007C00078204475616C20534F555243455F434F29
:1007D00044455F55524C3A68747470733A2F2F67D2
:1007E00069746875622E636F6D2F4D61726C696EEE
:1007F0004669726D776172652F4D61726C696E200A
:1008000050524F544F434F4C5F56455253494F4EF1
:100810003A312E30204D414348494E455F5459509E
:10082000453A426967426F7820312E312E38204494
:100830002045585452554445525F434F554E543A03
:100840003220555549443A37613865353562642D53
:10085000353061352D346464362D393337612D32AE
:1008600063353766356438313639340A002F2F2026
:10087000004D31343520533C696E6465783E206FFD
:100880007574206F662072616E67652028302D3187
:10089000290A00205400205200416363656C657290
:1008A0006174696F6E3A2050005741524E494E476D
:1008B00021204C6F77205A204A65726B206D617938
:1008C000206C65616420746F20756E77616E74654D
:1008D00064207061757365732E0A004F66667365D8
:1008E0007473206170706C696564004572723A209F
:1008F000546F6F206661722100546F6F20666172C1
:100900002066726F6D207265666572656E63652024
:10091000706F696E740A00486F74656E64206F664C
:1009200066736574733A0020466C6F773A20000056
:100930000111103025FFFFFFFF362F3723FFFFFF88
:10094000FF39383E21FFFFFFFFFFFF2D090708FF9A
:10095000FF171618FFFFFF1A191BFFFFFF094102BF
:10096000084003083F20643A0020693A0020703AAA
:1009700000496E76616C696420657874727564658F
:10098000720A0043290A0061626C656420286D695F
:100990006E2074656D702000436F6C642065787400
:1009A000727564657320617265200020643A0020CE
:1009B000693A0020703A004E6F2063617365206CC5
:1009C000696768740A00454550524F4D204F4B0AE5
:1009D000003F5A206F7574206F662072616E6765E4
:1009E00020282D323020746F203230290A003A201E
:1009F0000050726F6265205A204F666673657400FE
:100A00005072696E7465722073746F7070656420C3
:100A100064756520746F206572726F72732E204644
:100A2000697820746865206572726F7220616E64E7
:100A300020757365204D39393920746F20726573C4
:100A4000746172742E202854656D706572617475BE
:100A500072652069732072657365742E2053657406
:100A600020697420616674657220726573746172A6
:100A700074696E67290A0053544F505045442E2024
:100A8000001000C90210012C014001220170011860
:100A900001B0010E01F00104015002FA00B002F0B1
:100AA000003003E600D003DC009004D2007005C8DB
:100AB00000A006BE000008B400B009AA00D00BA038
:100AC00000600E960060118C0000158200201978DD
:100AD00000C01D6E00A0226400B0275A00902C5068
:100AE0000000314600E0343C0010383200903A28D3
:100AF00000603C1E00A03D1400803E0A00203F0024
:100B00000000000000300E0100C00E0A00500F145B
:100B100000D00F1E0060102800E010320070113C61
:100B200000F01146007012500000135A0080136448
:100B30000000146E00901478001015820090158C3F
:100B400000101696009016A0001017AA009017B477
:100B5000001018BE009018C8001019D2009019DCBF
:100B600000101AE600801AF000001BFA00801B0437
:100B700001F01B0E01701C1801F01C2201601D2CDD
:100B800001E01D3601501E4001D01E4A01401F5495
:100B900001B01F5E0130206801A020720110217C8D
:100BA0000190218601002290016026F401902A58CC
:100BB00002802EBC0250322003E03584035039E815
:100BC00003803C4C0424F404D9201BC40C5C0E9814
:100BD00004C4095F0265077101F405F900FB04B361
:100BE0000048048700C1036900580355000303450A
:100BF00000BE023A008402310053022A0029022575
:100C00000004022000E4011C00C8011900AF011714
:100C1000009801140084011300710110006101109B
:100C20000051010E0043010D0036010B002B010B9A
:100C30000020010B00150109000C01090003010847
:100C400000FB000800F3000800EB000700E40006CA
:100C500000DE000600D8000600D2000600CC000529
:100C600000C7000500C2000500BD000400B9000473
:100C700000B5000400B1000400AD000400A90004A8
:100C800000A5000300A20003009F0004009B0003D6
:100C900000980003009500020093000300900003F9
:100CA000008D0002008B0003008800020086000215
:100CB0000084000300810002007F0002007D00022A
:100CC000007B00020079000200770001007600023C
:100CD000007400020072000100710002006F000247
:100CE000006D0001006C0002006A00010069000252
:100CF0000067000100660001006500010064000259
:100D0000006200010061000100600001005F00025C
:100D1000005D0001005C0001005B0001005A000161
:100D20000059000100580001005700010056000161
:100D30000055000100540001005300000053000161
:100D4000005200010051000100500001004F00015D
:100D5000004E0000004E0001004D0001004C00015B
:100D6000004B0000004B0001004A00010049000157
:100D70000048000000480001004700010046000054
:100D8000004600010045000000450001004400014C
:100D90000043000000430001004200000042000147
:100DA000004100000041000100400001003F000040
:100DB000003F0001003E0000003E0001003D000039
:100DC000003D0001003C0000003C0000003C000130
:100DD000003B0000003B0001003A0000003A000127
:100DE0000039000000390001003800000038000020
:100DF0000038000100370000003700010036000015
:100E0000003600000036000100350000003500000B
:100E100000350001003400000034000000340001FF
:100E200000330000003300000033000100320000F6
:100E300000320000003200010031000000310000EB
:100E400000310001003000000030000000300001DF
:100E5000002F0000002F0000002F0000002F0001D5
:100E6000002E0000002E0000002E0001002D0000CA
:100E7000002D0000002D0000002D0001002C0000BE
:100E8000002C0000002C0000002C0001002B0000B2
:100E9000002B0000002B0000002B0001002A0000A6
:100EA000002A0000002A0000002A0001002900009A
:100EB000002900000029000000290000002900018D
:100EC0000028000000280000002800000028000082
:100ED0000028000100270000002700000027000074
:100EE0000027000000270001002600000026000067
:100EF000002600000026000000260001002500005A
:100F0000002500000025000000250000002500004D
:100F1000002500010024000000240000002400003F
:100F20000024000000240001002300000023000032
:100F30000023000000230000002300000023000025
:100F40000023000100220000002200000022000017
:100F50000022000000220000002200010021000009
:100F600000210000002100000021000000210000FD
:100F700000210000002100010020000000200000EE
:100F800000200000002000000020000000200000E1
:100F90000020000000200001001F0000001F0000D2
:100FA000001F0000001F0000001F0000001F0000C5
:100FB000001F0001001E0000001E0000001E0000B7
:100FC000001E00000024F4D43050C38E20C2A24082
:100FD00017828B7011127A910D816CD90AA861E188
:100FE00008C7586607615143061E4B5D05C145A7FA
:100FF000041A411104093D9803713931034036DB6D
:101000000265339102D4305402802E1D02632CEE0F
:1010100001752AC501B028A001102781018F256420
:10102000012B244B01E0223401AC211F018D200D46
:1010300001801FFC00841EED00971DDF00B81CD24C
:1010400000E61BC600201BBC00641AB200B219A83F
:10105000000A19A0006A189900D117910040178B57
:1010600000B516840031167E00B31579003A157369
:1010700000C7146F0058146A00EE136600881363EB
:101080000025135E00C7125B006C12570015125446
:1010900000C111510070114F0021114B00D61049B1
:1010A000008D1047004610440002104200C00F405F
:1010B00000800F3E00420F3C00060F3B00CB0E3875
:1010C00000930E37005C0E3500270E3400F30D320E
:1010D00000C10D3100900D3000600D2E00320D2D3D
:1010E00000050D2C00D90C2B00AE0C2900850C2915
:1010F000005C0C2700350C27000E0C2600E80B24A2
:1011000000C40B2400A00B23007D0B23005A0B21ED
:1011100000390B2100180B2000F80A1F00D90A1E05
:1011200000BB0A1E009D0A1D00800A1D00630A1CE8
:1011300000470A1B002C0A1B00110A1A00F7091AA3
:1011400000DD091900C4091900AB0919009209173B
:10115000007B091800630917004C091600360916B0
:1011600000200916000A091500F5081500E008140A
:1011700000CC081400B8081400A408140090081348
:10118000007D0812006B0813005808120046081270
:101190000034081100230811001208110001081181
:1011A00000F0071000E0071000D0071000C0071083
:1011B00000B0070F00A107100091070E0083070F72
:1011C0000074070F0065070E0057070E0049070E51
:1011D000003B070D002E070E0020070D0013070D22
:1011E0000006070D00F9060C00ED060D00E0060CE8
:1011F00000D4060C00C8060C00BC060C00B0060C9F
:1012000000A4060B0099060C008D060B0082060B4D
:101210000077060B006C060B0061060A0057060BF0
:10122000004C060A0042060A0038060A002E060A8A
:101230000024060A001A060A001006090007060A1A
:1012400000FD050900F4050900EB050900E20509A8
:1012500000D9050900D0050900C7050900BE050928
:1012600000B5050800AD050800A50509009C0508A6
:1012700000940508008C050800840508007C05081A
:1012800000740508006C050700650508005D05078A
:1012900000560508004E05070047050700400508F1
:1012A0000038050700310507002A05070023050758
:1012B000001C050600160507000F050700080506B7
:1012C0000002050700FB040600F5040700EE040613
:1012D00000E8040600E2040700DB040600D504066B
:1012E00000CF040600C9040600C3040600BD0406BE
:1012F00000B7040600B1040500AC040600A604060D
:1013000000A00405009B0406009504050090040657
:10131000008A04050085040500800406007A04059F
:101320000075040500700405006B040500660405E3
:1013300000610405005C0405005704050052040523
:10134000004D04050048040500430405003E040464
:10135000003A04050035040500300404002C04059F
:101360000027040400230405001E0404001A0404DA
:101370000016040500110404000D0404000904050E
:10138000000404040000040400FC030400F8030447
:1013900000F4030400F0030400EC030400E8030479
:1013A00000E4030400E0030400DC030400D80304A9
:1013B00000D4030400D0030400CC030400C80303DA
:1013C00000C50303000A4D657368206F6E6C7920B9
:1013D0007061727469616C6C7920706F70756C618A
:1013E0007465642E0A0024F404D9201BC40C5C0E1E
:1013F0009804C4095F0265077101F405F900FB0454
:10140000B30048048700C103690058035500030373
:101410004500BE023A008402310053022A0029022C
:10142000250004022000E4011C00C8011900AF01DE
:10143000170098011400840113007101100061016C
:10144000100051010E0043010D0036010B002B016D
:101450000B0020010B00150109000C01090003011C
:101460000800FB000800F3000800EB000700E400A0
:101470000600DE000600D8000600D2000600CC0000
:101480000500C7000500C2000500BD000400B9004A
:101490000400B5000400B1000400AD000400A90080
:1014A0000400A5000300A20003009F0004009B00AD
:1014B00003009800030095000200930003009000D1
:1014C00003008D0002008B000300880002008600EC
:1014D000020084000300810002007F0002007D0002
:1014E00002007B0002007900020077000100760014
:1014F00002007400020072000100710002006F001F
:1015000002006D0001006C0002006A000100690029
:101510000200670001006600010065000100640030
:1015200002006200010061000100600001005F0034
:1015300002005D0001005C0001005B0001005A0038
:101540000100590001005800010057000100560039
:101550000100550001005400010053000000530039
:1015600001005200010051000100500001004F0035
:1015700001004E0000004E0001004D0001004C0033
:1015800001004B0000004B0001004A00010049002F
:10159000010048000000480001004700010046002B
:1015A0000000460001004500000045000100440025
:1015B000010043000000430001004200000042001F
:1015C00001004100000041000100400001003F0017
:1015D00000003F0001003E0000003E0001003D0011
:1015E00000003D0001003C0000003C0000003C0009
:1015F00001003B0000003B0001003A0000003A00FF
:1016000001003900000039000100380000003800F6
:1016100000003800010037000000370001003600EC
:1016200000003600000036000100350000003500E3
:1016300000003500010034000000340000003400D8
:1016400001003300000033000000330001003200CD
:1016500000003200000032000100310000003100C3
:1016600000003100010030000000300000003000B8
:1016700001002F0000002F0000002F0000002F00AD
:1016800001002E0000002E0000002E0001002D00A1
:1016900000002D0000002D0000002D0001002C0096
:1016A00000002C0000002C0000002C0001002B008A
:1016B00000002B0000002B0000002B0001002A007E
:1016C00000002A0000002A0000002A000100290072
:1016D0000000290000002900000029000000290066
:1016E0000100280000002800000028000000280059
:1016F000000028000100270000002700000027004C
:10170000000027000000270001002600000026003E
:101710000000260000002600000026000100250031
:101720000000250000002500000025000000250025
:101730000000250001002400000024000000240017
:10174000000024000000240001002300000023000A
:1017500000002300000023000000230000002300FD
:1017600000002300010022000000220000002200EF
:1017700000002200000022000000220001002100E1
:1017800000002100000021000000210000002100D5
:1017900000002100000021000100200000002000C6
:1017A00000002000000020000000200000002000B9
:1017B000000020000000200001001F0000001F00AA
:1017C00000001F0000001F0000001F0000001F009D
:1017D00000001F0001001E0000001E0000001E008F
:1017E00000001E00000024F4D43050C38E20C2A29A
:1017F0004017828B7011127A910D816CD90AA86101
:10180000E108C7586607615143061E4B5D05C14597
:10181000A7041A411104093D980371393103403678
:10182000DB0265339102D4305402802E1D02632CFA
:10183000EE01752AC501B028A001102781018F256E
:1018400064012B244B01E0223401AC211F018D20C7
:101850000D01801FFC00841EED00971DDF00B81CE9
:10186000D200E61BC600201BBC00641AB200B219ED
:10187000A8000A19A0006A189900D1179100401712
:101880008B00B516840031167E00B31579003A1529
:101890007300C7146F0058146A00EE1366008813B3
:1018A000630025135E00C7125B006C12570015120F
:1018B0005400C111510070114F0021114B00D6107E
:1018C00049008D1047004610440002104200C00F2E
:1018D0004000800F3E00420F3C00060F3B00CB0E45
:1018E0003800930E37005C0E3500270E3400F30DE0
:1018F0003200C10D3100900D3000600D2E00320D10
:101900002D00050D2C00D90C2B00AE0C2900850CE8
:1019100029005C0C2700350C27000E0C2600E80B74
:101920002400C40B2400A00B23007D0B23005A0BC2
:101930002100390B2100180B2000F80A1F00D90ADA
:101940001E00BB0A1E009D0A1D00800A1D00630ABE
:101950001C00470A1B002C0A1B00110A1A00F70979
:101960001A00DD091900C4091900AB091900920910
:1019700017007B091800630917004C091600360987
:101980001600200916000A091500F5081500E008E0
:101990001400CC081400B8081400A408140090081F
:1019A00013007D0812006B08130058081200460847
:1019B0001200340811002308110012081100010858
:1019C0001100F0071000E0071000D0071000C0075A
:1019D0001000B0070F00A107100091070E00830749
:1019E0000F0074070F0065070E0057070E00490728
:1019F0000E003B070D002E070E0020070D001307F9
:101A00000D0006070D00F9060C00ED060D00E006BE
:101A10000C00D4060C00C8060C00BC060C00B00676
:101A20000C00A4060B0099060C008D060B00820624
:101A30000B0077060B006C060B0061060A005706C8
:101A40000B004C060A0042060A0038060A002E0661
:101A50000A0024060A001A060A00100609000706F2
:101A60000A00FD050900F4050900EB050900E2057F
:101A70000900D9050900D0050900C7050900BE0500
:101A80000900B5050800AD050800A50509009C057D
:101A90000800940508008C050800840508007C05F2
:101AA0000800740508006C050700650508005D0561
:101AB0000700560508004E050700470507004005CA
:101AC000080038050700310507002A05070023052F
:101AD00007001C050600160507000F05070008058E
:101AE000060002050700FB040600F5040700EE04EB
:101AF0000600E8040600E2040700DB040600D50443
:101B00000600CF040600C9040600C3040600BD0495
:101B10000600B7040600B1040500AC040600A604E4
:101B20000600A00405009B0406009504050090042F
:101B300006008A04050085040500800406007A0476
:101B4000050075040500700405006B0405006604BB
:101B50000500610405005C040500570405005204FB
:101B600005004D04050048040500430405003E043B
:101B700004003A04050035040500300404002C0478
:101B8000050027040400230405001E0404001A04B1
:101B9000040016040500110404000D0404000904E7
:101BA00005000404040000040400FC030400F8031E
:101BB0000400F4030400F0030400EC030400E80351
:101BC0000400E4030400E0030400DC030400D80381
:101BD0000400D4030400D0030400CC030400C803B1
:101BE0000300C50303005374617274206F6620758F
:101BF000626C2E6C696E655F746F5F646573746987
:101C00006E6174696F6E5F63617274657369616E32
:101C10002829006F7574206F6620626F756E64737B
:101C200020696E2075626C2E6C696E655F746F5FE3
:101C300064657374696E6174696F6E5F63617274F9
:101C4000657369616E28290046494E414C5F4D4FCE
:101C5000564520696E2075626C2E6C696E655F74E6
:101C60006F5F64657374696E6174696F6E5F6361E1
:101C70007274657369616E28290076657274696390
:101C8000616C206D6F766520646F6E6520696E20D3
:101C900075626C2E6C696E655F746F5F64657374DA
:101CA000696E6174696F6E5F636172746573696197
:101CB0006E282900686F72697A6F6E74616C206D8E
:101CC0006F766520646F6E6520696E2075626C2E7C
:101CD0006C696E655F746F5F64657374696E61745F
:101CE000696F6E5F63617274657369616E28290044
:101CF00067656E65726963206D6F766520646F6ECF
:101D00006520696E2075626C2E6C696E655F746FFC
:101D10005F64657374696E6174696F6E5F6361722D
:101D200074657369616E2829004D6F76696E672E40
:101D30002E2E005A2D4F66667365743A2000417549
:101D4000746F20686F6D6500473238004175746F9D
:101D500074656D70005049442D49005049442D442C
:101D600000416363656C00412D7265747261637438
:101D700000412D74726176656C00567A2D6A657229
:101D80006B005873746570732F6D6D0059737465B3
:101D900070732F6D6D005A73746570732F6D6D00C5
:101DA0004573746570732F6D6D0046696C2E204409
:101DB00069612E0046696C2E204469612E20310035
:101DC00046696C2E204469612E2032005072696E83
:101DD000742066726F6D205344005072696E7420D7
:101DE00066726F6D20534400696E206D6F76655F7B
:101DF000746F282920666565645F76616C7565205F
:101E0000666F722058593A004C656176696E67209A
:101E1000473236004732362048656174696E672064
:101E20004E6F7A7A6C652E004732362048656174B1
:101E3000696E67204265642E00446F6E65205072A3
:101E4000696D696E6700557365722D436F6E7472AC
:101E50006F6C6C6564205072696D650046697865C9
:101E600064204C656E677468205072696D652E0041
:101E70004D6573682056616C69646174696F6E208A
:101E800053746F707065642E002C2065793D0029B5
:101E9000202D3E202865783D002C2073793D0020C0
:101EA000436F6E6E656374696E672077697468202E
:101EB000766572746963616C206C696E6520287345
:101EC000783D002C2065793D0029202D3E20286595
:101ED000783D002C2073793D0020436F6E6E656362
:101EE00074696E67207769746820686F72697A6FA9
:101EF0006E74616C206C696E65202873783D004CAF
:101F0000656176696E6720473236003F53706563BE
:101F1000696669656420582C5920636F6F72646923
:101F20006E617465206F7574206F6620626F756EC8
:101F300064732E0A003F285229657065617420760B
:101F4000616C7565206E6F7420706C617573696269
:101F50006C653B206D757374206265206174206C24
:101F60006561737420312E0A003F537065636966A2
:101F7000696564206E6F7A7A6C652074656D706532
:101F8000726174757265206E6F7420706C61757308
:101F900069626C652E0A003F537065636966696506
:101FA000642066696C616D656E742073697A652062
:101FB0006E6F7420706C61757369626C652E0A00B7
:101FC0003F537065636966696564207072696D6509
:101FD000206C656E677468206E6F7420706C61751C
:101FE0007369626C652E0A003F53706563696669A8
:101FF0006564206E6F7A7A6C652073697A65206EED
:102000006F7420706C61757369626C652E0A003F95
:1020100053706563696669656420526574726163B3
:1020200074696F6E204D756C7469706C696572208F
:102030006E6F7420706C61757369626C652E0A0036
:102040003F52657472616374696F6E204D756C7474
:1020500069706C696572206D757374206265207398
:1020600070656369666965642E0A003F5370656335
:102070006966696564206C61796572206865696765
:102080006874206E6F7420706C61757369626C6522
:102090002E0A003F53706563696669656420626556
:1020A000642074656D7065726174757265206E6F01
:1020B0007420706C61757369626C65202834302DF2
:1020C00031343043292E0A0047323620636F6D6D5C
:1020D000616E6420737461727465642E2057616947
:1020E00074696E6720666F72206865617465722816
:1020F00073292E0A0000000001000000010000808A
:1021000000555555000000400033333300AAAA2A79
:10211000004992240000002000C7711C0099991901
:1021200000D1451700555515003BB1130024491245
:102130000011111100000010000F0F0F00E3380E06
:102140000043790D00CCCC0C00C3300C00E8A20B8E
:102150000064210B00AAAA0A00703D0A009DD8095C
:1021600000427B090092240900DCD308008888081B
:10217000001042080000000800F0C1070087870730
:102180000075500700711C07003EEB0600A1BC065D
:10219000006990060066660600703E06006118063B
:1021A0000017F4050074D105005BB00500B290057E
:1021B00000627205005555050078390500B81E0506
:1021C00000050505004EEC040087D40400A1BD0401
:1021D0000090A7040049920400C17D0400EE690448
:1021E00000C7560400444404005C32040008210483
:1021F0000041100400000004003FF00300F8E00379
:102200000026D20300C3C30300CCB503003AA803E1
:10221000000A9B0300388E0300C08103009F7503F2
:1022200000D0690300505E03001D530300344803CF
:1022300000913D03003333030016290300381F03C8
:102240000097150300300C0300030303000BFA0290
:102250000049F10200BAE802005CE002002DD80259
:10226000002DD0020059C80200B0C0020031B902EE
:1022700000DAB10200AAAA0200A0A30200BC9C02DC
:1022800000FA9502005C8F0200DF88020082820261
:1022900000457C02002776020027700200436A0294
:1022A000007C640200D05E02003F590200C8530265
:1022B0000020746F6F206C6F6E6720657874727584
:1022C00073696F6E2070726576656E7465640A005E
:1022D00020636F6C6420657874727573696F6E200B
:1022E00070726576656E7465640A00496E73756612
:1022F00066696369656E7420646174610A00646F65
:102300006E650A004578747261706F6C6174696EF5
:1023100067206D6573682E2E2E0024F4D43050C3D0
:102320008E20C2A24017828B7011127A910D816C9F
:10233000D90AA861E108C7586607615143061E4BD8
:102340005D05C145A7041A411104093D980371397F
:1023500031034036DB0265339102D4305402802EC3
:102360001D02632CEE01752AC501B028A0011027BB
:1023700081018F2564012B244B01E0223401AC2123
:102380001F018D200D01801FFC00841EED00971D94
:10239000DF00B81CD200E61BC600201BBC00641A7C
:1023A000B200B219A8000A19A0006A189900D11742
:1023B000910040178B00B516840031167E00B315CE
:1023C00079003A157300C7146F0058146A00EE13B1
:1023D00066008813630025135E00C7125B006C1251
:1023E000570015125400C111510070114F002111F6
:1023F0004B00D61049008D104700461044000210D3
:102400004200C00F4000800F3E00420F3C00060F0C
:102410003B00CB0E3800930E37005C0E3500270EC4
:102420003400F30D3200C10D3100900D3000600D0D
:102430002E00320D2D00050D2C00D90C2B00AE0CFA
:102440002900850C29005C0C2700350C27000E0C98
:102450002600E80B2400C40B2400A00B23007D0BF6
:1024600023005A0B2100390B2100180B2000F80A19
:102470001F00D90A1E00BB0A1E009D0A1D00800A0B
:102480001D00630A1C00470A1B002C0A1B00110ACE
:102490001A00F7091A00DD091900C4091900AB096F
:1024A0001900920917007B091800630917004C09ED
:1024B000160036091600200916000A091500F5084D
:1024C0001500E0081400CC081400B8081400A40893
:1024D0001400900813007D0812006B0813005808C0
:1024E00012004608120034081100230811001208D7
:1024F000110001081100F0071000E0071000D007DC
:102500001000C0071000B0070F00A10710009107CE
:102510000E0083070F0074070F0065070E005707B2
:102520000E0049070E003B070D002E070E00200786
:102530000D0013070D0006070D00F9060C00ED064F
:102540000D00E0060C00D4060C00C8060C00BC060A
:102550000C00B0060C00A4060B0099060C008D06BA
:102560000B0082060B0077060B006C060B00610661
:102570000A0057060B004C060A0042060A003806FD
:102580000A002E060A0024060A001A060A0010068F
:10259000090007060A00FD050900F4050900EB051E
:1025A0000900E2050900D9050900D0050900C705A1
:1025B0000900BE050900B5050800AD050800A50520
:1025C00009009C050800940508008C050800840596
:1025D00008007C050800740508006C050700650507
:1025E00008005D050700560508004E050700470571
:1025F00007004005080038050700310507002A05D7
:102600000700230507001C050600160507000F0537
:1026100007000805060002050700FB040600F50494
:102620000700EE040600E8040600E2040700DB04ED
:102630000600D5040600CF040600C9040600C30442
:102640000600BD040600B7040600B1040500AC0492
:102650000600A6040600A00405009B0406009504DD
:102660000500900406008A04050085040500800426
:1026700006007A04050075040500700405006B046B
:10268000050066040500610405005C0405005704AC
:102690000500520405004D040500480405004304EC
:1026A00005003E0404003A0405003504050030042A
:1026B00004002C04050027040400230405001E0464
:1026C00004001A04040016040500110404000D049B
:1026D0000400090405000404040000040400FC03D1
:1026E0000400F8030400F4030400F0030400EC0306
:1026F0000400E8030400E4030400E0030400DC0336
:102700000400D8030400D4030400D0030400CC0365
:102710000400C8030300C503030024F404D9201BEC
:10272000C40C5C0E9804C4095F0265077101F405CE
:10273000F900FB04B30048048700C1036900580393
:10274000550003034500BE023A00840231005302E3
:102750002A002902250004022000E4011C00C8010F
:102760001900AF01170098011400840113007101D2
:1027700010006101100051010E0043010D003601EF
:102780000B002B010B0020010B00150109000C01AF
:10279000090003010800FB000800F3000800EB003B
:1027A0000700E4000600DE000600D8000600D200A4
:1027B0000600CC000500C7000500C2000500BD00F2
:1027C0000400B9000400B5000400B1000400AD002D
:1027D0000400A9000400A5000300A20003009F005C
:1027E00004009B0003009800030095000200930082
:1027F0000300900003008D0002008B00030088009E
:1028000002008600020084000300810002007F00B5
:1028100002007D0002007B000200790002007700C8
:1028200001007600020074000200720001007100D5
:1028300002006F0002006D0001006C0002006A00DF
:1028400001006900020067000100660001006500E8
:1028500001006400020062000100610001006000EC
:1028600001005F0002005D0001005C0001005B00F0
:1028700001005A00010059000100580001005700F2
:1028800001005600010055000100540001005300F2
:1028900000005300010052000100510001005000EF
:1028A00001004F0001004E0000004E0001004D00ED
:1028B00001004C0001004B0000004B0001004A00E9
:1028C00001004900010048000000480001004700E5
:1028D00001004600000046000100450000004500E0
:1028E00001004400010043000000430001004200D9
:1028F00000004200010041000000410001004000D2
:1029000001003F0000003F0001003E0000003E00CB
:1029100001003D0000003D0001003C0000003C00C3
:1029200000003C0001003B0000003B0001003A00B9
:1029300000003A00010039000000390001003800B1
:1029400000003800000038000100370000003700A8
:10295000010036000000360000003600010035009E
:102960000000350000003500010034000000340094
:102970000000340001003300000033000000330089
:10298000010032000000320000003200010031007E
:102990000000310000003100010030000000300074
:1029A0000000300001002F0000002F0000002F0069
:1029B00000002F0001002E0000002E0000002E005D
:1029C00001002D0000002D0000002D0000002D0052
:1029D00001002C0000002C0000002C0000002C0046
:1029E00001002B0000002B0000002B0000002B003A
:1029F00001002A0000002A0000002A0000002A002E
:102A00000100290000002900000029000000290021
:102A10000000290001002800000028000000280014
:102A20000000280000002800010027000000270007
:102A300000002700000027000000270001002600FA
:102A400000002600000026000000260000002600EE
:102A500001002500000025000000250000002500E1
:102A600000002500000025000100240000002400D3
:102A700000002400000024000000240001002300C6
:102A800000002300000023000000230000002300BA
:102A900000002300000023000100220000002200AB
:102AA000000022000000220000002200000022009E
:102AB0000100210000002100000021000000210091
:102AC0000000210000002100000021000100200082
:102AD0000000200000002000000020000000200076
:102AE00000002000000020000000200001001F0066
:102AF00000001F0000001F0000001F0000001F005A
:102B000000001F0000001F0001001E0000001E004A
:102B100000001E0000001E000000393000003325B8
:102B2000000087190000B00F0000DB080000BD04A2
:102B30000000740200003F0100004D657368204CE6
:102B40006576656C696E670045646974204D6573D0
:102B5000680056616C6964617465204D6573680036
:102B60004D616E75616C6C79204275696C64204DA5
:102B70006573680047323920493939390A47323993
:102B80002050322042205430004275696C64204D40
:102B900065736800556E69666965642042656420E6
:102BA0004C6576656C696E670037205361766520E9
:102BB000426564204D65736800362046696E652065
:102BC00054756E6520416C6C0047323920503420BA
:102BD00052393939205400352056616C696461746A
:102BE00065204D65736800342046696E6520547514
:102BF0006E6520416C6C00473239205034205239C8
:102C00003939205400332056616C69646174652041
:102C10004D657368003220536D6172742046696C93
:102C20006C2D696E0047323920503320543000310A
:102C3000204275696C6420436F6C64204D65736835
:102C4000004732380A47323920503100556E6966E4
:102C500069656420426564204C6576656C696E67C1
:102C60000046616465204865696768740046616470
:102C70006520486569676874004661646520486539
:102C800069676874004F75747075742055424C20E4
:102C9000496E666F0047323920570055424C205428
:102CA0006F6F6C73004F7574707574204D65736829
:102CB000204D6170004D6573682053746F726167B9
:102CC00065004D65736820456469740053746570D0
:102CD0002D42792D537465702055424C0044656136
:102CE000637469766174652055424C00473239201F
:102CF000440041637469766174652055424C004715
:102D0000323920410050726570617265004D343275
:102D100038004D38300053776974636820706F77DE
:102D20006572206F6666004D3831005072656865C7
:102D3000617420414253005072656865617420508F
:102D40004C4100436F6F6C646F776E00537769740A
:102D5000636820706F776572206F6E0044697361DD
:102D6000626C65207374657070657273004D3834E1
:102D70000053657420686F6D65206F6666736574B7
:102D80007300556E696669656420426564204C6510
:102D900076656C696E67004175746F20686F6D654C
:102DA00000473238004D6F76652061786973004DB9
:102DB00061696E004D6F76652058004D6F76652015
:102DC00059004D6F7665205A0045787472756465B8
:102DD000723200457874727564657231004D6F7699
:102DE0006520302E316D6D004D6F766520316D6D33
:102DF000004D6F76652031306D6D004D6F7665202A
:102E000061786973004578747275646572004D6FFE
:102E10007665205A004D6F76652059004D6F7665B6
:102E2000205800627573793A20706175736564206B
:102E3000666F7220696E7075740A00627573793AF4
:102E40002070617573656420666F7220757365729A
:102E50000A00627573793A2070726F6365737369E3
:102E60006E670A004B494C4C45442E20004B494CA0
:102E70004C20636175736564206279204B494C4C2A
:102E800020627574746F6E2F70696E0A004B494C26
:102E90004C45442E20004B494C4C206361757365B2
:102EA0006420627920746F6F206D75636820696E8D
:102EB0006163746976652074696D65202D20637582
:102EC0007272656E7420636F6D6D616E643A20007E
:102ED000506C65617365207265736574005052496A
:102EE0004E5445522048414C544544005072696E3E
:102EF0007465722068616C7465642E206B696C6CFB
:102F000028292063616C6C6564210A00656E717507
:102F1000657565696E6720220000000000000000F2
:102F2000000000000000004842000048420000800D
:102F300040000000005761726E696E673A20486F6A
:102F40006D696E672042756D702044697669736F94
:102F500072203C20310A000202040000A040000060
:102F6000A040000000400000824300006B430000CE
:102F70009643FFFFFF2020506C616E6E65724275B4
:102F80006666657242797465733A20002046726500
:102F900065204D656D6F72793A2000436F6D7069E1
:102FA0006C65643A20466562202035203230313924
:102FB0000A00207C20417574686F723A2028416EA7
:102FC00064726577204C696F2C2042422044756101
:102FD0006C20446972656374290A00323031392DDE
:102FE00030322D303400204C617374205570646190
:102FF0007465643A2000312E312E392042424475E6
:10300000616C0A004D61726C696E0020536F6674CA
:10301000776172652052657365740A002057617488
:103020006368646F672052657365740A002042729A
:103030006F776E206F75742052657365740A002077
:1030400045787465726E616C2052657365740A0010
:10305000506F77657255700A0073746172740A005C
:103060006175746F25692E67006572726F722077C3
:10307000726974696E6720746F2066696C650A00F6
:10308000456E6473746F707320256320256320255B
:103090006320256300205A3A0020593A0020583A0C
:1030A00000656E6473746F7073206869743A2000F1
:1030B000446F6E6520736176696E672066696C6522
:1030C0002E0A004D323900473239204A2569004C1A
:1030D0006576656C204D65736800536964652050A2
:1030E0006F696E7473005369646520506F696E7404
:1030F00073005369646520506F696E7473005542A4
:103100004C20546F6F6C7300496E666F207363724E
:1031100065656E0047726964204D657368204C6573
:1031200076656C696E6700332D506F696E74204C44
:103130006576656C696E6700473239204A30005504
:10314000424C20546F6F6C7300473239205033204B
:103150005220432E256900496E666F2073637265A5
:10316000656E004D616E75616C2046696C6C2D69F1
:103170006E00473239205032204220543000536DC7
:103180006172742046696C6C2D696E00473239207B
:1031900050332054300046696C6C2D696E20416DAF
:1031A0006F756E740046696C6C2D696E20416D6F91
:1031B000756E740046696C6C2D696E20416D6F757B
:1031C0006E74004275696C64204D657368004D65CE
:1031D000736820696E76616C6964617465642E0A37
:1031E00000496E666F2073637265656E00496E7686
:1031F000616C696461746520436C6F7365737400FE
:10320000473239204900496E76616C6964617465A2
:1032100020416C6C00436F6E74696E756520426569
:1032200064204D65736800473239205031204300D7
:1032300046696C6C2D696E204D6573680042756936
:103240006C6420436F6C64204D65736800473238AE
:103250000A473239205031004275696C6420437549
:1032600073746F6D204D657368004275696C6420DE
:10327000414253204D657368004732380A4D313959
:1032800030205339300A4D31303920533233350A2A
:103290004732392050310A4D3130342053300A4DF5
:1032A000313430205330004275696C6420504C41F9
:1032B000204D657368004732380A4D31393020534C
:1032C00036300A4D31303920533231300A473239E5
:1032D0002050310A4D3130342053300A4D313430D2
:1032E0002053300055424C20546F6F6C73004D31A9
:1032F0003137204D657368202569207361766564D8
:103300000047323920532569004D313137204D6552
:103310007368202569206C6F6164656400473239E9
:10332000204C2569005361766520426564204D6517
:103330007368004C6F616420426564204D6573685A
:10334000004D656D6F727920536C6F74004D656D23
:103350006F727920536C6F74004D656D6F727920B8
:10336000536C6F74004E6F2073746F7261676500E9
:10337000556E696669656420426564204C657665B2
:103380006C696E6700486F6D696E672058595A0006
:103390004732392050342058257320592573205244
:1033A000256900202D2D2D2D2D000000803FE438B3
:1033B0009E41E4381A4256556542E43898421DC78A
:1033C000BD425655E342C8710443E4381743000038
:1033D0002A431DC73C433A8E4F4356556243721CE5
:1033E0007543C8F1834356558D430000803FC77134
:1033F000DC41C77158425555A142C771D6421CC71E
:103400000543555520438EE33A43C77155430000A9
:1034100070431C478543398E924355D59F43721C98
:10342000AD438E63BA43ABAAC743473238004F75EA
:1034300074707574204D657368204D6170004F661F
:1034400066205072696E746572204261636B75709C
:103450000047323920532D31004F75747075742038
:10346000666F722043535600473239205431004F63
:10347000757470757420666F7220486F737400479E
:10348000323920543000556E6966696564204265A2
:1034900064204C6576656C696E67000900000A015E
:1034A0000008000A01000A090000000A00080020C4
:1034B00066726F6D2063757272656E74206D6573D0
:1034C000682E0A005375627472616374696E6720B6
:1034D0006D65736820696E20736C6F7420003F55B2
:1034E0007365203020746F20003F496E76616C69EF
:1034F000642073746F7261676520736C6F742E0A39
:10350000003F557365203020746F20003F53746F67
:103510007261676520736C6F74202320726571750A
:10352000697265642E0A003F454550524F4D207325
:10353000746F72616765206E6F7420617661696C6B
:1035400061626C652E0A004D65736820456469747C
:10355000696E672053746F7070656400446F6E65A8
:103560002045646974696E67204D6573680A00447C
:103570006F6E652045646974696E67204D65736878
:103580000046696E652054756E696E67204D6573DF
:10359000680028582C5929206F7574736964652058
:1035A0007072696E7461626C6520726164697573B2
:1035B0002E0A004F6666736574206F7574206F66FF
:1035C00020626F756E64732E20283020746F203156
:1035D000306D6D290A0A00AA34A534A0349B345DED
:1035E0000A0062656420706C616E65206E6F726D9A
:1035F000616C203D205B00436F756C64206E6F74BE
:1036000020636F6D706C657465204C5346210043D8
:103610006F727265637465645F5A3D003F457272F4
:103620006F722070726F62696E6720706F696E745E
:103630002E202041626F7274696E67206F70657210
:103640006174696F6E2E0A00436F727265637465F0
:10365000645F5A3D00436F727265637465645F5ABC
:103660003D00436F727265637465645F5A3D00008C
:10367000000000300E0100C00E0A00500F1400D0F0
:103680000F1E0060102800E010320070113C00F0A6
:103690001146007012500000135A0080136400009D
:1036A000146E00901478001015820090158C001094
:1036B0001696009016A0001017AA009017B40010DC
:1036C00018BE009018C8001019D2009019DC001024
:1036D0001AE600801AF000001BFA00801B0401F0BB
:1036E0001B0E01701C1801F01C2201601D2C01E052
:1036F0001D3601501E4001D01E4A01401F5401B02A
:103700001F5E0130206801A020720110217C019011
:10371000218601002290016026F401902A5802803F
:103720002EBC0250322003E03584035039E8038078
:103730003C4C04202F002040002042403A00204012
:103740003A00556E696669656420426564204C657F
:1037500076656C696E6700205A00204A0020204D73
:103760003432312049002020473239204939393953
:103770000A006163746976652E0A00696E00205341
:10378000797374656D2076312E3031200020202031
:103790007C0A004E414E0020202E20202000207C5C
:1037A000004C43443A0A004353563A0A0020666FDD
:1037B0007220003A0A0A000A42656420546F706F52
:1037C000677261706879205265706F7274003F4D46
:1037D00065736820746F6F2062696720666F72205E
:1037E000454550524F4D2E0A00446F6E652E0A001B
:1037F0003F557365203020746F20003F496E76611D
:103800006C69642073746F7261676520736C6F7488
:103810002E0A003F454550524F4D2073746F726120
:103820006765206E6F7420617661696C61626C659A
:103830002E0A00446F6E652E0A003F5573652030D6
:1038400020746F20003F496E76616C696420737448
:103850006F7261676520736C6F742E0A003F454577
:1038600050524F4D2073746F72616765206E6F7494
:1038700020617661696C61626C652E0A004732399D
:103880002050322066696E69736865642E0A00589C
:1038900059206F757473696465207072696E746104
:1038A000626C65207261646975732E0A003F45720F
:1038B000726F7220696E20427573696E6573732032
:1038C00043617264206D6561737572656D656E74B8
:1038D0002E0A004D616E75616C6C792070726F629A
:1038E000696E6720756E726561636861626C6520E0
:1038F0006D657368206C6F636174696F6E732E0AF7
:1039000000292E0A0A0050726F62696E67204D65A9
:10391000736820506F696E747320436C6F736573A6
:103920007420746F2028004D65736820696E76617D
:103930006C6964617465642E2050726F62696E6791
:10394000206D6573682E0A004D657368207A657274
:103950006F65642E0A0044656661756C742073742B
:103960006F7261676520736C6F7420302073656CB3
:1039700065637465642E0A004C6F6164696E67202C
:10398000746573745F7061747465726E2076616CB7
:103990007565732E0A0A00496E76616C696420743D
:1039A0006573745F7061747465726E2076616C7596
:1039B000652E20282D3120746F2032290A0A004CF0
:1039C0006F636174696F6E7320696E76616C696490
:1039D000617465642E0A0A00456E74697265204D33
:1039E00065736820696E76616C6964617465642EC4
:1039F0000A0A005374616E646172642044657669DA
:103A00006174696F6E3A20004D65616E204D65737B
:103A100068204865696768743A200023206F662033
:103A200073616D706C65733A20000A4D6573682090
:103A30006F6E6C79207061727469616C6C79207042
:103A40006F70756C617465642E0A0A0020616E6483
:103A50002074616B652061206D6561737572656DA1
:103A6000656E742E0A006D6D20746869636B2E0A92
:103A700000427573696E65737320436172642069D7
:103A800073200052656D6F76652026206D65617329
:103A9000757265206265640052656D6F766520738E
:103AA00068696D00506C616365207368696D2026DC
:103AB000206D65617375726500506C61636520737C
:103AC00068696D20756E646572206E6F7A7A6C65B8
:103AD000004D65736820506F696E74204D65617389
:103AE000757265642061743A20000A4D6573682020
:103AF0006F6E6C79207061727469616C6C79207082
:103B00006F70756C617465642E0A004D6561737524
:103B1000726500506C616365207368696D202620B2
:103B20006D656173757265004D6F76696E6720749F
:103B30006F206E65787400496E76616C6964206DE3
:103B4000617020747970652E0A0A003F2846296149
:103B500064652068656967687420666F72204265D5
:103B600064204C6576656C20436F7272656374697E
:103B70006F6E206E6F7420706C61757369626C6516
:103B80002E0A0A003F43616E2774206163746976D0
:103B900061746520616E6420646561637469766137
:103BA0007465206174207468652073616D6520748C
:103BB000696D652E0A0A00426F746820582026201D
:103BC00059206C6F636174696F6E73206D757374C7
:103BD000206265207370656369666965642E0A0AF0
:103BE000003F496E76616C69642067726964207376
:103BF000697A6520284A292073706563696669655A
:103C0000642028322D39292E0A0A003F28502968BD
:103C10006173652076616C756520696E76616C698B
:103C2000642028302D36292E0A0A003F285629659F
:103C300072626F7365206C6576656C2069732069AC
:103C40006D706C61757369626C652028302D342944
:103C50002E0A0A003F285229657065746974696FDD
:103C60006E20636F756E7420696E76616C69642076
:103C700028312B292E0A0A00446F696E67204732CB
:103C800039002073616E69747920636865636B73B2
:103C9000207061737365642E0A0020207374617450
:103CA000653A004B696C6C2070696E206F6E203A2B
:103CB00000202000592D41786973204D65736820DC
:103CC000506F696E74732061743A20002020005890
:103CD0002D41786973204D65736820506F696E744B
:103CE000732061743A20004D4553485F595F444941
:103CF00053542020004D4553485F585F4449535466
:103D0000202000475249445F4D41585F504F494E73
:103D100054535F59202000475249445F4D41585F3A
:103D2000504F494E54535F582020004D4553485F33
:103D30004D41585F5920203137303D004D455348A3
:103D40005F4D41585F5820203234303D004D45537F
:103D5000485F4D494E5F592020313D004D45534845
:103D60005F4D494E5F582020313D007A70726F627E
:103D7000655F7A6F66667365743A2000706C616E79
:103D80006E65722E7A5F666164655F6865696768F3
:103D900074203A200055424C206F626A656374209B
:103DA000636F756E743A2000204C6F616465642EF9
:103DB000004D65736820004E6F204D657368204C80
:103DC0006F616465642E003A2000454550524F4DA6
:103DD0002044756D703A0A007C3C3E5E2B3D3F2FBF
:103DE0005B5D3B2C2A225C004572726F72207772F9
:103DF0006974696E6720746F20454550524F4D219C
:103E00000A00436172642072656D6F7665640043D9
:103E100061726420696E73657274656400000609DE
:103E200000FE0701920321207FFF07FF07FF00002C
:103E300000060000010707060200808080808000E5
:103E400080030202060105A0A00507070600005036
:103E500050F850F850500507070600002078A07071
:103E600028F020050707060000C0C8102040981859
:103E70000507070600006090A040A89068020303B1
:103E8000060104C04080030707060100204080802F
:103E9000804020030707060100804020202040804A
:103EA00005050506000120A870A8200505050600E7
:103EB000012020F820200203030602FFC0408005F5
:103EC0000101060003F8020202060200C0C0050557
:103ED0000506000108102040800507070600007055
:103EE00088888888887003070706010040C0404022
:103EF0004040E0050707060000708808708080F8E1
:103F0000050707060000F81020100808F00507074D
:103F100006000010305090F810100507070600004A
:103F2000F880F00808887005070706000070808098
:103F3000F0888870050707060000F8081020202088
:103F400020050707060000708888708888700507BC
:103F500007060000708888780808700205050602C8
:103F600000C0C000C0C00206060602FFC0C000C0FC
:103F70004080040707060000102040804020100504
:103F80000303060002F800F804070706010080405A
:103F900020102040800507070600007088081020C8
:103FA000002005070706000070880868A8A87005AB
:103FB0000707060000708888F888888805070706C4
:103FC0000000F08888F08888F00507070600007078
:103FD000888080808870050707060000F088888840
:103FE0008888F0050707060000F88080F08080F8D8
:103FF000050707060000F88080F08080800507072D
:10400000060000708880B8888870050707060000E1
:10401000888888F8888888010707060200808080E1
:10402000808080800507070600003810101010906F
:10403000600507070600008890A0C0A090880507CB
:1040400007060000808080808080F8050707060052
:104050000088D8A88888888805070706000088880F
:10406000C8A898888805070706000070888888888F
:104070008870050707060000F08888F080808005BA
:10408000070706000070888888A89068050707065B
:104090000000F08888F0A0908805070706000078E7
:1040A0008080700808F0050707060000F82020202F
:1040B00020202005070706000088888888888870E7
:1040C00005070706000088888888885020050707AC
:1040D0000600008888888888A85005070706000021
:1040E000888850205088880507070600008888883F
:1040F00050202020050707060000F8081020408007
:10410000F8030707060100E08080808080E0050555
:10411000050600018040201008030707060100E0A3
:104120002020202020E005030306000420508805FD
:104130000101060000F802020206020580400505A2
:1041400005060000700878887805070706000080DB
:1041500080B0C88888F0050505060000708080885A
:104160007005070706000008086898888878050524
:10417000050600007088F88070050707060000300B
:1041800048E0404040400506060600FF70888878F9
:1041900008700507070600008080B0C8888888017D
:1041A00007070602008000808080808003080806E0
:1041B00001FF200020202020A04004070706000067
:1041C000808090A0C0A090030707060100C0404077
:1041D000404040E0050505060000D0A8A8A8A805B5
:1041E0000505060000B0C88888880505050600009A
:1041F00070888888700506060600FFF08888F080C1
:10420000800506060600FF788888780808050505F9
:10421000060000B0C880808005050506000070809B
:104220007008F00407070600004040E040404030BE
:1042300005050506000088888898680505050600BC
:104240000088888850200505050600008888A8A8F1
:104250005005050506000088502050880506060612
:1042600000FF888888780870050505060000F810AA
:104270002040F8030707060100204040804040200E
:104280000107070602008080808080808003070786
:1042900006010080404020404080050202060002E6
:1042A00068900000000600004578747275646572BD
:1042B00032004578747275646572310045787472A5
:1042C00075646572004D6F7665205A004D6F766596
:1042D0002059004D6F7665205800507265706172EC
:1042E0006500496E697469616C697A65204545505D
:1042F000524F4D00436F6E74726F6C005265737451
:104300006F7265206661696C73616665004C6F61F0
:10431000642073657474696E677300496E697469AB
:10432000616C697A6520454550524F4D0053746F5A
:1043300072652073657474696E67730046696C6199
:104340006D656E74004D6F74696F6E0054656D70AD
:1043500065726174757265004D61696E004D333030
:104360003320553120452569205325690050726559
:10437000686561742041425320636F6E660050721D
:10438000656865617420504C4120636F6E66005013
:104390004944204175746F74756E6500504944201E
:1043A0004175746F74756E65005049442041757491
:1043B0006F74756E65005049442D44005049442D7A
:1043C00044005049442D49005049442D490050496A
:1043D000442D50005049442D50005049442D500068
:1043E0002008204661637400200820466163740041
:1043F00020082046616374002008204D6178002069
:1044000008204D6178002008204D617800200820A8
:104410004D696E002008204D696E002008204D690E
:104420006E004F6666004F6E20004175746F7465B4
:104430006D700046616E2073706565640046616E44
:104440002073706565640046616E207370656564F5
:10445000004265640042656400426564004E6F7A04
:104460007A6C652032004E6F7A7A6C652032004E8D
:104470006F7A7A6C652032004E6F7A7A6C652031E3
:10448000004E6F7A7A6C652031004E6F7A7A6C65D7
:10449000203100436F6E74726F6C0053746F7265DD
:1044A0002073657474696E677300426564004265C9
:1044B0006400426564004E6F7A7A6C65004E6F7AD4
:1044C0007A6C65004E6F7A7A6C650046616E207377
:1044D000706565640046616E2073706565640046B2
:1044E000616E2073706565640054656D70657261FE
:1044F00074757265004D657368207361766564201C
:10450000696E20736C6F74200020736C6F743D00B3
:10451000206D65736865735F656E643D0045324567
:104520004E443D004D657368206C6F616465642086
:1045300066726F6D20736C6F7420004861726463E3
:104540006F6465642044656661756C74205365749E
:1045500074696E6773204C6F616465640A00E803D8
:104560000000E803000064000000102700000000C5
:104570001643000016430000C040000048420000FF
:104580002043000034430000C84400C090433A0A6E
:104590000020286D6D290020204D383531205A002B
:1045A0005A2D50726F6265204F66667365740020E5
:1045B000440020490020204D333034205000204456
:1045C0000020490020204D3330312050002044008D
:1045D00020490020500020204D333031204500502C
:1045E00049442073657474696E67733A0A00204603
:1045F0000020420020480020204D31343520530057
:104600004D6174657269616C2068656174757020B4
:10461000706172616D65746572733A0A00206D6530
:10462000736865732E0A0A00454550524F4D20634A
:10463000616E20686F6C6420000A4163746976655E
:10464000204D65736820536C6F743A2000205A0027
:1046500020204D3432302053003A0A0020590020E7
:10466000580020204D323138205400486F74656E58
:1046700064206F6666736574733A0A00205A0020DE
:10468000590020204D323036205800486F6D65208B
:104690006F66667365743A0A00204500205A002050
:1046A000590020580020540020530020204D323063
:1046B0003520510020453C6D61785F655F6A657209
:1046C0006B3E0020583C6D61785F785F6A65726B65
:1046D0003E20593C6D61785F795F6A65726B3E2060
:1046E0005A3C6D61785F7A5F6A65726B3E00416427
:1046F00076616E6365643A20513C6D696E5F7365E7
:10470000676D656E745F74696D655F75733E205388
:104710003C6D696E5F66656564726174653E2054C8
:104720003C6D696E5F74726176656C5F6665656429
:10473000726174653E0020540020520020204D32EA
:104740003034205000416363656C65726174696F39
:104750006E2028756E6974732F7332293A20503C8D
:104760007072696E745F616363656C3E20523C7267
:104770006574726163745F616363656C3E20543C71
:1047800074726176656C5F616363656C3E0A0020DC
:104790004500205A0020590020204D323031205849
:1047A000004D6178696D756D20416363656C65725C
:1047B0006174696F6E2028756E6974732F73322966
:1047C0003A0A00204500205A0020590020204D328E
:1047D00030332058004D6178696D756D20666565D0
:1047E0006472617465732028756E6974732F732900
:1047F0003A0A00204500205A0020590020204D3957
:104800003220580053746570732070657220756E85
:1048100069743A0A0020204D3230302044300A00BA
:1048200020204D32303020543120440020204D32A1
:1048300030302044002044697361626C65640A0072
:1048400046696C616D656E742073657474696E671A
:10485000733A0020204D3134392043203B20556EDF
:1048600069747320696E2043656C736975730A00FF
:104870002020473231202020203B00545249474716
:1048800045524544006F70656E003A20007A5F6DB6
:10489000696E00795F6D696E00785F6D696E0052B8
:1048A00065706F7274696E6720656E6473746F7083
:1048B000207374617475730A0057726974696E6746
:1048C00020746F2066696C653A20006F70656E20F9
:1048D0006661696C65642C2046696C653A20006FDE
:1048E00070656E206661696C65642C2046696C6534
:1048F0003A200046696C652073656C656374656475
:104900000A002053697A653A200046696C65206F79
:1049100070656E65643A20002066696C653A200017
:10492000646F696E67006672657368004E6F77200A
:1049300000454E4420535542524F5554494E450A66
:10494000002220706F73002220706172656E743ACD
:104950002200535542524F5554494E452043414C35
:104960004C207461726765743A22004B494C4C4587
:10497000442E2000747279696E6720746F20636121
:104980006C6C207375622D67636F64652066696C5B
:104990006573207769746820746F6F206D616E791C
:1049A000206C6576656C732E204D4158206C6576C1
:1049B000656C2069733A004572726F723A006F70CD
:1049C000656E206661696C65642C2046696C653A89
:1049D000200043616E6E6F74206F70656E2073757A
:1049E0006264697220006563686F3A004532205442
:1049F0004845524D414C2052554E41574159004572
:104A00003120544845524D414C2052554E4157415A
:104A1000590042454420544845524D414C2052557E
:104A20004E4157415900546865726D616C20527552
:104A30006E6177617900454550524F4D2064617435
:104A40006173697A65206572726F722E0A00290A95
:104A5000002062797465733B2063726320005365A4
:104A60007474696E67732053746F726564202800D4
:104A700055424C2053797374656D2072657365746B
:104A800028290A00206C6F616465642066726F6D6E
:104A90002073746F726167652E0A004D657368201C
:104AA000002E0A003F43616E277420656E61626CC0
:104AB00065200020696E697469616C697A65642E8D
:104AC0000A0A00290A002062797465733B20637228
:104AD0006320002073746F72656420736574746959
:104AE0006E6773207265747269657665642028004C
:104AF000202863616C63756C6174656429210A0008
:104B000020213D2000454550524F4D204352432027
:104B10006D69736D61746368202D202873746F72E2
:104B200065642920002053697A653A2000496E6443
:104B300065783A2000204D61726C696E3D563535BE
:104B4000290A0028454550524F4D3D0045455052D9
:104B50004F4D2076657273696F6E206D69736D615C
:104B60007463682000205A3A0020593A0020436FAD
:104B7000756E7420583A0020453A00205A3A0020B9
:104B8000593A00583A003A004361703A00205A00FE
:104B9000205900580020204D61783A2000205A000A
:104BA000205900580020204D696E3A20004F6E2099
:104BB000004F666600536F667420656E6473746F91
:104BC00070733A20004B64200023646566696E654B
:104BD0002044454641554C545F004B6920002364F6
:104BE0006566696E652044454641554C545F004BEF
:104BF00070200023646566696E6520444546415512
:104C00004C545F00504944204175746F74756E6553
:104C10002066696E6973686564212050757420741C
:104C20006865206C617374204B702C204B69206187
:104C30006E64204B6420636F6E7374616E747320B6
:104C400066726F6D2062656C6F7720696E746F207D
:104C5000436F6E66696775726174696F6E2E680A5C
:104C600000504944204175746F74756E652066610B
:104C7000696C6564212074696D656F75740A0045FF
:104C80003220544845524D414C2052554E415741D7
:104C90005900453120544845524D414C2052554E03
:104CA000415741590042454420544845524D414CDA
:104CB0002052554E4157415900546865726D616CE0
:104CC0002052756E617761790045322048656174C4
:104CD000696E67206661696C6564004531204865CE
:104CE0006174696E67206661696C65640042656421
:104CF0002068656174696E67206661696C6564002F
:104D000048656174696E67206661696C656400500E
:104D10004944204175746F74756E65206661696CD5
:104D20006564212054656D706572617475726520CB
:104D3000746F6F20686967680A00204B643A20002E
:104D4000204B693A2000204B703A20000A20436C27
:104D5000617373696320504944200A002054753AF6
:104D60002000204B753A2000206D61783A20002009
:104D70006D696E3A200020643A20002062696173F8
:104D80003A2000504944204175746F74756E652057
:104D90006661696C65642120426164206578747283
:104DA00075646572206E756D6265720A00504944C3
:104DB000204175746F74756E652073746172740A26
:104DC000004F66660A004661646520486569676849
:104DD000742000426564204C6576656C696E6720BE
:104DE000004661696C656420746F20656E61626C59
:104DF0006520426564204C6576656C696E670A00C3
:104E000076616C69640A53746F7261676520736CB4
:104E10006F743A2000696E004D65736820697320D5
:104E2000003F557365203020746F20003F496E7637
:104E3000616C69642073746F7261676520736C6F55
:104E4000742E0A004D65736820706F696E7420635C
:104E5000616E6E6F74206265207265736F6C76652B
:104E6000640A004D34323120696E636F727265637B
:104E70007420706172616D6574657220757361670D
:104E8000650A00496E76616C696420657874727594
:104E90006465720A004163746976652045787472AE
:104EA000756465723A2000507265686561742050BF
:104EB0004C4120416C6C00507265686561742050F3
:104EC0004C4120456E642045320050726568656132
:104ED0007420504C41203200507265686561742026
:104EE000504C4120456E6420453100507265686524
:104EF000617420504C4120426564005072656865C1
:104F0000617420504C4120310050726570617265AF
:104F100000507265686561742041425320416C6C99
:104F200000507265686561742041425320456E648B
:104F300020453200507265686561742041425320FB
:104F40003200507265686561742041425320456E9D
:104F50006420453100507265686561742041425398
:104F60002042656400507265686561742041425357
:104F700020310050726570617265004732392050EF
:104F800031004D31303920532569004D3139302001
:104F900053256900473238004275696C64204375B7
:104FA00073746F6D204D65736800426564205465AD
:104FB0006D70004265642054656D70004265642028
:104FC00054656D7000486F74656E642054656D7033
:104FD00000486F74656E642054656D7000486F748E
:104FE000656E642054656D70004275696C64204D77
:104FF000657368002E2569004732392050362043FA
:10500000202D00496E666F2073637265656E0048DF
:10501000656967687420416D6F756E7400486569D5
:1050200067687420416D6F756E74004865696768C4
:105030007420416D6F756E740045646974204D6510
:10504000736800496E666F2073637265656E004118
:10505000646A757374204D65736820486569676874
:10506000740046696E652054756E6520436C6F73DD
:105070006573740047323920503420540046696EFD
:10508000652054756E6520416C6C004732392050A4
:1050900034205239393920540055424C20546F6F16
:1050A0006C7300473238004732362043204225696E
:1050B00020482569205000496E666F207363726531
:1050C000656E0056616C6964617465204375737424
:1050D0006F6D204D6573680056616C69646174651D
:1050E00020414253204D657368004732380A4732E9
:1050F0003620432042393020483233352050005684
:10510000616C696461746520504C41204D65736821
:10511000004732380A473236204320423630204892
:1051200032313020500055424C20546F6F6C730068
:1051300000060900FE000000000001090008FE0052
:105140000005080806000040F0C888889878100517
:105150000808060000C0F88888888888F8050505D2
:105160000600012030F830200508080600002070F5
:10517000F820202020E00509090600FF2070A8A8DB
:10518000B8888870200509090600FFE080C0B0A833
:10519000283028280509090600FFF8A8888888888B
:1051A00088A8F8050A0A0600FE205050505088A82A
:1051B000A8887003030306000340A04025753A2524
:1051C00030327500253032753A253032750025753C
:1051D0006420253032753A25303275002020202099
:1051E0002020005A005900202020200058000920CB
:1051F000000000000000000000000000003FFFF081
:1052000000000000000000000000000038007000F6
:10521000000000000000000000000030FC30000032
:105220000000000000000000000020FC1000000052
:1052300000000000000000000020781000000000C6
:1052400000000000000000002030100000000000FE
:10525000000000000000002C00D03FC0001FE00054
:105260000000002082002E31D07DE0003CF00000E4
:1052700000001041002F7BD079E0003B700000005F
:10528000001041002F7BD075E0003F70000000004F
:105290002082002E31D03DC0001EE0000000004101
:1052A00004002C00D03DC0001DE00000000082087A
:1052B000002030107DE0003BF0000000008208007C
:1052C0002078107DE00038700000000041040020CC
:1052D000FC107FE0003FF00000000020820030FC66
:1052E000301F80000FC00000000000000038007078
:1052F0000F0000078000000000FFFFC03FFFF00626
:105300000000030000000000FFFFC00000000000DC
:10531000000000000000000000003FFFF00000005F
:1053200000000000000000000038007000000000D5
:105330000000000000000000318630000000000086
:1053400000000000000000238710000000000000A3
:10535000000000000000278790000000000000000F
:1053600000000000002F87D00000000000000000B7
:10537000000000002F03D03FC0001FE0000000002D
:105380002082002030107DE0003CF0000000001082
:10539000410020781079E0003B70000000001041CF
:1053A0000020781075E0003F7000000000208200AF
:1053B0002030103DC0001EE0000000004104002F1E
:1053C00003D03DC0001DE0000000008208002F87D0
:1053D000D07DE0003BF000000000820800278790AD
:1053E0007DE0003870000000004104002387107F3A
:1053F000E0003FF0000000002082003186301F8076
:10540000000FC0000000000000003800700F000016
:10541000078000000000FFFFC03FFFF00600000310
:105420000000000000FFFFC000000056652D6A6507
:10543000726B0056652D6A65726B0056652D6A6544
:10544000726B00567A2D6A65726B00567A2D6A650A
:10545000726B0056792D6A65726B0056792D6A65FC
:10546000726B0056792D6A65726B0056782D6A65ED
:10547000726B0056782D6A65726B0056782D6A65DE
:10548000726B004D6F74696F6E0045737465707355
:105490002F6D6D004573746570732F6D6D005A73B9
:1054A000746570732F6D6D005A73746570732F6D12
:1054B0006D005973746570732F6D6D005973746549
:1054C00070732F6D6D005873746570732F6D6D0060
:1054D0005873746570732F6D6D004D6F74696F6EC6
:1054E0000053746570732F6D6D004A65726B0041D7
:1054F0006363656C65726174696F6E0056656C6F8D
:10550000636974790050726F6265205A204F666635
:105510007365740050726F6265205A204F6666731F
:1055200065740050726F6265205A204F666673651D
:105530007400436F6E74726F6C0046696C2E204469
:1055400069612E20320046696C2E204469612E204C
:10555000320046696C2E204469612E203100466974
:105560006C2E204469612E20310046696C2E204447
:1055700069612E0046696C2E204469612E004F66D9
:1055800066004F6E20004520696E206D6D3300452A
:1055900020696E206D6D3300436F6E74726F6C0006
:1055A00043616E6E6F7420656E74657220737562F0
:1055B0006469723A2000022E2E004D61696E00521D
:1055C0006573656E643A20006F6B002C2065653D45
:1055D000002C207A653D002C2079653D0020756205
:1055E0006C2E6C696E655F746F5F64657374696E51
:1055F0006174696F6E5F63617274657369616E284F
:1056000078653D0020746F6F206C6F6E6720657841
:1056100074727573696F6E2070726576656E7465ED
:10562000640A0020636F6C64206578747275736916
:105630006F6E2070726576656E7465640A005072D4
:105640006F7465637465642050696E0A00537461F9
:105650006E6461726420446576696174696F6E3A44
:1056600020002052616E67653A2000204D61783A33
:105670002000204D696E3A20004D65616E3A200091
:1056800046696E6973686564210A002072616E67FD
:10569000653A2000206D61783A2000206D696E3AED
:1056A0002000207369676D613A2000206D65616E8E
:1056B0003A20003A207A3A2000206F662000205AD3
:1056C00000205900205800476F696E6720746F3AB8
:1056D00000436C6F636B776973650A00436F756E87
:1056E0007465722D0020446972656374696F6E3A47
:1056F0002000202020616E676C653A2000537461A1
:105700007274696E67207261646975733A20005023
:105710006F736974696F6E696E6720746865207055
:10572000726F62652E2E2E0A003F4E756D62657295
:10573000206F66206C65677320696E206D6F7665DB
:105740006D656E74206E6F7420706C617573696224
:105750006C652028302D3135292E0A003F2028582D
:105760002C5929206F7574206F6620626F756E64E6
:10577000732E0A003F53616D706C652073697A6502
:10578000206E6F7420706C61757369626C6520287F
:10579000342D3530292E0A004D3438205A2D5072C0
:1057A0006F6265205265706561746162696C6974CD
:1057B0007920546573740A003F2856296572626F18
:1057C0007365206C6576656C20697320696D706CFB
:1057D00061757369626C652028302D34292E0A00AA
:1057E00020573A0045256920436F6F6C696E672E1C
:1057F0002E2E004525692048656174696E672E2E3E
:105800002E0020573A0042656420636F6F6C696E0A
:10581000672E2E2E004265642068656174696E678C
:105820002E2E2E000808FFFFFFFF000002020202DA
:105830006265640A002C2073797374656D2073743B
:105840006F7070656421204865617465725F4944BA
:105850003A20004265642068656174696E6720665D
:1058600061696C65640048656174696E6720666192
:10587000696C65640045312048656174696E672014
:105880006661696C65640045322048656174696EC3
:1058900067206661696C65640048656174696E675C
:1058A000206661696C6564001000C90210012C015A
:1058B0004001220170011801B0010E01F001040144
:1058C0005002FA00B002F0003003E600D003DC0022
:1058D0009004D2007005C800A006BE000008B40005
:1058E000B009AA00D00BA000600E960060118C00D9
:1058F0000015820020197800C01D6E00A0226400EF
:10590000B0275A00902C500000314600E0343C0093
:1059100010383200903A2800603C1E00A03D140070
:10592000803E0A00203F00004532204572723A2036
:105930004D415854454D50004531204572723A2032
:105940004D415854454D50004572723A204D4158D2
:1059500054454D5020424544004D415854454D500A
:10596000207472696767657265640045322045720C
:10597000723A204D494E54454D50004531204572F4
:10598000723A204D494E54454D50004572723A20AE
:105990004D494E54454D5020424544004D494E54CA
:1059A000454D5020747269676765726564004D38B3
:1059B0003420582059205A20450020496E76616CC9
:1059C0006964206578747275646572200000000057
:1059D0000000000000000000000000824300006B97
:1059E0004300009643486F6D65202573257325732A
:1059F000206669727374002066697273740A005AB3
:105A00000059005800486F6D65200050726F626940
:105A10006E67206661696C65640A0050726F626926
:105A20006E67206661696C656400205A3A20002028
:105A3000593A200042656420583A2000486F6D6949
:105A40006E67206661696C656400486F6D652058FB
:105A5000592066697273740A00486F6D6520585941
:105A6000206669727374004D3234004D3233202544
:105A70007300556E6B6E6F776E20636F6D6D616E28
:105A8000643A202200206D65736820736C6F747314
:105A900020617661696C61626C652E0A003F496E17
:105AA00076616C696420736C6F742E0A0053442015
:105AB00063617264206F6B0A006F70656E526F6F66
:105AC00074206661696C65640A00766F6C756D653B
:105AD0002E696E6974206661696C65640A005344BE
